:020000040800F2
:100000000000022031270008C5080008C7080008C2
:10001000C9080008CB080008CD080008000000004F
:10002000000000000000000000000000CF080008F1
:10003000D108000800000000D3080008D508000817
:1000400081270008812700088127000881270008F0
:1000500081270008812700088127000881270008E0
:1000600081270008812700088127000881270008D0
:1000700081270008812700088127000881270008C0
:1000800081270008812700088127000881270008B0
:1000900081270008812700088127000881270008A0
:1000A0008127000881270008812700088127000890
:1000B0008127000881270008812700088127000880
:1000C000812700088127000881270008DD08000833
:1000D0008127000881270008ED0800088127000813
:1000E0008127000881270008812700088127000850
:1000F0008127000881270008812700088127000840
:10010000812700088127000881270008812700082F
:10011000812700088127000881270008812700081F
:10012000812700088127000881270008FD080008B2
:10013000812700080000000000000000812700085F
:1001400081270008812700088127000881270008EF
:1001500081270008812700088127000881270008DF
:1001600081270008812700088127000881270008CF
:10017000812700088127000800000000000000001F
:08018000812700088127000817
:1001880010B5054C237833B9044B13B10448AFF3C9
:1001980000800123237010BD0C0000200000000027
:1001A800DC27000808B5034B1BB103490348AFF32C
:1001B800008008BD0000000010000020DC270008B7
:1001C800034613F8012B002AFBD1181A013870478F
:1001D80053B94AB9002908BF00281CBF4FF0FF31A6
:1001E8004FF0FF3000F074B9ADF1080C6DE904CEA2
:1001F80000F006F8DDF804E0DDE9022304B07047FA
:100208002DE9F047089D04468E46002B4DD18A42C1
:10021800944669D9B2FA82F252B101FA02F3C2F1F4
:10022800200120FA01F10CFA02FC41EA030E944085
:100238004FEA1C48210CBEFBF8F61FFA8CF708FBA6
:1002480016E341EA034306FB07F199420AD91CEB7E
:10025800030306F1FF3080F01F81994240F21C81B0
:10026800023E63445B1AA4B2B3FBF8F008FB1033F8
:1002780044EA034400FB07F7A7420AD91CEB04042D
:1002880000F1FF3380F00A81A74240F207816444FD
:10029800023840EA0640E41B00261DB1D440002382
:1002A800C5E900433146BDE8F0878B4209D9002DE6
:1002B80000F0EF800026C5E9000130463146BDE870
:1002C800F087B3FA83F6002E4AD18B4202D38242DA
:1002D80000F2F980841A61EB030301209E46002D89
:1002E800E0D0C5E9004EDDE702B9FFDEB2FA82F2DE
:1002F800002A40F09280A1EB0C014FEA1C471FFA3C
:100308008CFE0126200CB1FBF7F307FB131140EA22
:1003180001410EFB03F0884208D91CEB010103F1EF
:10032800FF3802D2884200F2CB804346091AA4B2B1
:10033800B1FBF7F007FB101144EA01440EFB00FE85
:10034800A64508D91CEB040400F1FF3102D2A645EA
:1003580000F2BB800846A4EB0E0440EA03409CE789
:10036800C6F12007B34022FA07FC4CEA030C20FA36
:1003780007F401FA06F31C43F9404FEA1C4900FA56
:1003880006F3B1FBF9F8200C1FFA8CFE09FB1811D3
:1003980040EA014108FB0EF0884202FA06F20BD946
:1003A8001CEB010108F1FF3A80F08880884240F296
:1003B8008580A8F102086144091AA4B2B1FBF9F0DA
:1003C80009FB101144EA014100FB0EFE8E4508D9D5
:1003D8001CEB010100F1FF346CD28E456AD902385A
:1003E800614440EA0840A0FB0294A1EB0E01A1423F
:1003F800C846A64656D353D05DB1B3EB080261EBAD
:100408000E0101FA07F722FA06F3F1401F43C5E986
:10041800007100263146BDE8F087C2F12003D840BC
:100428000CFA02FC21FA03F3914001434FEA1C47FE
:100438001FFA8CFEB3FBF7F007FB10360B0C43EAF0
:10044800064300FB0EF69E4204FA02F408D91CEBA0
:10045800030300F1FF382FD29E422DD9023863449E
:100468009B1B89B2B3FBF7F607FB163341EA03413E
:1004780006FB0EF38B4208D91CEB010106F1FF388D
:1004880016D28B4214D9023E6144C91A46EA004684
:1004980038E72E46284605E70646E3E61846F8E616
:1004A8004B45A9D2B9EB020864EB0C0E0138A3E75F
:1004B8004646EAE7204694E74046D1E7D0467BE740
:1004C800023B614432E7304609E76444023842E7B8
:1004D800704700BF00B583B000230193184A116B21
:1004E80041F480011163126B02F480020192019AB7
:1004F8001448154A02604360802282604FF40072FB
:10050800C2604FF48062026143618361C361036228
:100518000422426203228262C362036300F0F0FC99
:1005280050B9002211463B2000F010FC3B2000F09F
:1005380045FC03B05DF804FB00F074F8F1E700BF78
:100548000038024028000020106402402DE9F041E4
:100558008AB0002405940694079408940994019499
:100568002C4B1A6B42F080021A631A6B02F080025D
:100578000192019A02941A6B42F001021A631A6BF3
:1005880002F001020292029A03941A6B42F00402EA
:100598001A631A6B02F004020392039A04941A6B0A
:1005A80042F002021A631B6B03F002030493049BDC
:1005B800DFF86C8022464021404600F079FF164F54
:1005C80022463021384600F073FF144E2246F021AF
:1005D800304600F06DFF40230593012506950794EA
:1005E800089405A9404600F071FE3023059306954E
:1005F8000794089405A9384600F068FEF02305938F
:1006080006950794089405A9304600F05FFE0AB0E5
:10061800BDE8F081003802400008024000040240B2
:100628000000024072B6FEE700B595B03022002106
:1006380008A802F0C7F800230393049305930693D0
:10064800079301931E4A116C41F080511164126C9A
:1006580002F080520192019A02931A4B1A6842F4EE
:1006680080421A601B6803F480430293029B0123B3
:1006780008934FF48033099302220E924FF48003BB
:100688000F9304231093402111911292139308A8F9
:1006980000F01EFF80B90F23039302210491002369
:1006A80005934FF480520692079303A801F076F958
:1006B80020B915B05DF804FBFFF7B4FFFFF7B2FFF0
:1006C800003802400070004010B584B000F0ECFA29
:1006D800FFF7AAFFFFF73AFFFFF7FCFE00F04EF81E
:1006E80000F01AF9204C01228021204600F0E0FE9B
:1006F80001224021204600F0DBFE01222021204675
:1007080000F0D6FE01221021204600F0D1FE00F0B4
:10071800B5F900F0ADF94FF4FA6000F0F1FA134AB8
:100728000021084600F07CFA114A14211D2000F02F
:1007380077FA104B6C460FCB07C4237000F0DAFA37
:1007480084B20D2269460C4801F07EFD00F0D2FA11
:10075800001BB0F57A7FF4D98021034800F0AEFE83
:1007680000F0C8FA84B2ECE700040240F42700085D
:10077800F8270008082800084001002008B510489C
:10078800104B03604FF4827343604FF4004383605F
:100798000023C36002220261012242614FF4007209
:1007A80082612022C2610362436283620A23C362B8
:1007B80001F068FA00B908BDFFF734FFFBE700BF96
:1007C800E80000200030014030B589B000230393D1
:1007D80004930593069307930268264B9A4201D027
:1007E80009B030BD04460025019503F584335A6CE1
:1007F80042F480525A645A6C02F480520192019A6F
:1008080002951A6B42F001021A631B6B03F0010395
:100818000293029BA02303930223049303230693CA
:100828000523079303A9144800F050FD1348144BFF
:1008380003604FF0C063436040238360C5604FF49A
:100848008063036145618561C5610562456200F0A9
:1008580057FB58B9094BA3649C6300221146232017
:1008680000F074FA232000F0A9FAB9E7FFF7DAFEDE
:10087800F0E700BF0030014000000240880000207F
:100888005864024082B0002100910B4B5A6C42F42C
:1008980080425A645A6C02F480420092009A019194
:1008A8001A6C42F080521A641B6C03F08053019357
:1008B800019B02B0704700BF00380240FEE7FEE728
:1008C800FEE7FEE7FEE770477047704708B500F09F
:1008D80005FA08BD08B5024801F0F6FA08BD00BFE0
:1008E800E800002008B5024801F0DEFD08BD00BFA1
:1008F8004001002008B5024800F0FAFB08BD00BF1F
:1009080088000020034AD2F8883043F47003C2F804
:100918008830704700ED00E008B50A480A4B0360CC
:100928004FF4E133436000238360C36003610C220A
:1009380042618361C36101F057FC00B908BDFFF74C
:1009480071FEFBE7400100200044004010B588B06C
:100958000023039304930593069307930268184BA7
:100968009A4201D008B010BD0024019403F5FA336F
:100978001A6C42F400321A641A6C02F400320192C2
:10098800019A02941A6B42F001021A631B6B03F07E
:1009980001030293029B0C23039302230493032372
:1009A80006930723079303A9064800F08FFC224605
:1009B8002146262000F0CAF9262000F0FFF9D1E7E9
:1009C800004400400000024000B583B08DF80700E5
:1009D80001220DF10701034801F0B4F903B05DF8F5
:1009E80004FB00BFE800002038B505460B4C002288
:1009F8001021204600F05CFD00222021204600F056
:100A080057FD2846FFF7E0FF01222021204600F08D
:100A18004FFD012000F074F938BD00BF0008024006
:100A280038B50546094C01221021204600F040FD4A
:100A380000222021204600F03BFD2846FFF7C4FF96
:100A480001222021204600F033FD38BD0008024075
:100A580070B50546002606E02846FFF7E1FF013499
:100A68007F2CF9DD0136072E01DC0024F8E770BD84
:100A780008B50020FFF7ECFF08BD000010B5384CA2
:100A880001221021204600F013FD012220212046DA
:100A980000F00EFDA4F5006401224021204600F07C
:100AA80007FD012000F02CF900224021204600F02B
:100AB800FFFC032000F024F901224021204600F029
:100AC800F7FC642000F01CF9AE20FFF78DFFD5205D
:100AD800FFF78AFF8020FFF787FFA820FFF784FF32
:100AE8003F20FFF781FFD320FFF77EFF0020FFF7AD
:100AF8007BFF8D20FFF778FF1420FFF775FF20207C
:100B0800FFF772FF0020FFF76FFFA120FFF76CFFD0
:100B1800C820FFF769FFDA20FFF766FF1220FFF70A
:100B280063FF8120FFF760FFCF20FFF75DFFD9202B
:100B3800FFF776FFF120FFF773FFDB20FFF770FF69
:100B48004020FFF76DFFA420FFF74EFFA620FFF718
:100B58004BFFAF20FFF748FFFFF78AFF10BD00BF2C
:100B6800000802402DE9F8438846A2F120052B4BE6
:100B78005F7815FB07F5ADB20435ADB24FEAD00981
:100B880000F007062020FFF72FFF0020FFF72CFFBB
:100B98002220FFF729FF4846FFF726FF0720FFF727
:100BA80023FF2120FFF720FF4046FFF71DFF7F208E
:100BB800FFF71AFF002408E02B19184AD05CB04050
:100BC800C0B2FFF72DFF0134E4B2A742F4D20EB948
:100BD800BDE8F8832220FFF707FF09F10100FFF7BE
:100BE80003FF0720FFF700FF2120FFF7FDFE404627
:100BF800FFF7FAFE7F20FFF7F7FE00240AE02B1923
:100C0800064AD05CC6F108031841C0B2FFF708FFD6
:100C18000134E4B2A742F2D2DAE700BF3028000874
:100C28002DE9F04180460F4616461046FFF7C8FAF0
:100C3800054600240AE0084B597814FB01F13944B1
:100C4800325DC9B24046FFF78DFF0134ABB2A34213
:100C5800F1DABDE8F08100BF3028000810B504467D
:100C68000E4B18784FF47A73B3FBF0F30C4A106804
:100C7800B0FBF3F000F0B0F868B90F2C01D90120EF
:100C88000AE0002221464FF0FF3000F05FF8054BE4
:100C98001C60002000E0012010BD00BF04000020FF
:100CA800000000200800002008B50B4B1A6842F429
:100CB80000721A601A6842F480621A601A6842F474
:100CC80080721A60032000F02FF80F20FFF7C6FF8C
:100CD800FFF7D8FD002008BD003C0240034A116818
:100CE800034B1B780B441360704700BF840100203E
:100CF80004000020014B1868704700BF84010020E1
:100D080038B50446FFF7F6FF0546B4F1FF3F02D0B9
:100D1800044B1B781C44FFF7EDFF401BA042FAD39D
:100D280038BD00BF04000020074AD36823F4E063FD
:100D38001B041B0C000200F4E060034343F0BF6394
:100D480043F40033D360704700ED00E000B5194B61
:100D5800DB68C3F30223C3F1070CBCF1040F28BFFF
:100D68004FF0040C03F1040EBEF1060F18D9033B33
:100D78004FF0FF3E0EFA0CFC21EA0C0199400EFAE6
:100D880003F322EA0303194300280BDB0901C9B264
:100D980000F1604000F5614080F800135DF804FB45
:100DA8000023E5E700F00F000901C9B2024B19540E
:100DB800F4E700BF00ED00E014ED00E0002807DBD9
:100DC80000F01F02400901239340024A42F82030F4
:100DD800704700BF00E100E00138B0F1807F0BD21E
:100DE8004FF0E0235861054AF02182F823100020D3
:100DF800986107221A6170470120704700ED00E0F2
:100E080030B405682C6824F480242C60046863607E
:100E18008368402B05D0036899600368DA6030BCAA
:100E2800704703689A600368D960F8E710B40368EC
:100E3800D9B210390C4AA2FB014212090B4CA25C30
:100E4800C2655F2909D923F47F7323F003030433B0
:100E58008365806D5DF8044B704723F47F7323F03E
:100E680003038365F5E700BFABAAAAAA782A00089E
:100E7800836A826992B9012B0AD0022B02D00BB186
:100E880000207047C36A13F0807F28D10020704784
:100E9800C36AB3F1C07F24D000207047B2F5005F69
:100EA80009D0022B25D9032B25D1C36A13F0807FE3
:100EB80023D100207047032B03D8DFE803F0140484
:100EC800140A00207047C36A13F0807F0DD10020F8
:100ED8007047C36AB3F1C07F09D000207047012072
:100EE800704701207047012070470120704701209A
:100EF80070470120704700207047012070470000AC
:100F080070B50446FFF7F6FE002C5BD005460223B9
:100F180084F83530002384F834302268136823F0CD
:100F28000103136023681A6812F0010F0AD0FFF753
:100F3800E1FE431B052BF5D920236365032084F8C4
:100F4800350070BD1A68204810406168A2680A43DD
:100F5800E1680A4321690A4361690A43A1690A43AE
:100F6800E1690A43216A0A430243616A04291ED0DF
:100F78001A602668756925F00705636A1D43042B06
:100F880007D1A36A1D43E36A1BB12046FFF770FF30
:100F980090B975612046FFF749FFE26D3F23934002
:100FA800836000206065012384F83530C9E7E16A71
:100FB800206B01430A43DBE740236365012084F883
:100FC8003500BEE70120BCE73F8010F038B5044685
:100FD800856D90F8340001282BD0012084F8340066
:100FE80094F83500C0B2012804D0002384F83430C6
:100FF800022038BD022084F83500002060652046B4
:10100800FFF7FEFEE26D3F239340AB602268136852
:1010180043F016031360236C23B12268136843F06E
:10102800080313602268136843F00103136000206B
:10103800DFE70220DDE770B50446866DFFF75AFE4C
:1010480094F83530DBB2022B06D080236365002389
:1010580084F83430012070BD05462268136823F0F7
:10106800160313602268536923F080035361236CCD
:10107800E3B12268136823F0080313602268136839
:1010880023F00103136023681B6813F0010F11D0CC
:10109800FFF730FE431B052BF5D92023636503209A
:1010A80084F83500002384F83430D4E7A36C002B8F
:1010B800DFD1E3E7E26D3F239340B360012384F877
:1010C8003530002084F83400C5E790F83530DBB2BD
:1010D800022B03D08023436501207047052380F845
:1010E80035300268136823F001031360002070474D
:1010F800F0B583B0044600230193724B1D68724B10
:10110800A3FB0535AD0A876D3E68C26D0823934081
:10111800334210D003681A6812F0040F0BD01A6813
:1011280022F004021A60C26D08239340BB60436D2D
:1011380043F001034365E26D01239340334209D034
:101148002268526912F0800F04D0BB60636D43F0CF
:1011580002036365E26D04239340334209D0226899
:10116800126812F0020F04D0BB60636D43F00403F1
:101178006365E26D10239340334224D022681268DD
:1011880012F0080F1FD0BB6023681A6812F4802F72
:101198000DD01B6813F4002F04D1236C9BB120469B
:1011A800984710E0A36C73B1204698470BE01A6883
:1011B80012F4807F03D11A6822F008021A60236CA7
:1011C8000BB120469847E26D20239340334255D017
:1011D8002268126812F0100F50D0BB6094F83530B6
:1011E800DBB2052B0ED023681A6812F4802F33D097
:1011F8001B6813F4002F2AD1636C002B3ED02046C5
:1012080098473BE02268136823F0160313602268AE
:10121800536923F080035361236CA3B122681368D8
:1012280023F008031360E26D3F239340BB60012362
:1012380084F83530002384F83430236D002B3FD0F8
:10124800204698473CE0A36C002BE7D1EBE7E36B23
:10125800A3B12046984711E01A6812F4807F09D19B
:101268001A6822F010021A60012384F8353000232E
:1012780084F83430E36B0BB120469847636DFBB1BB
:10128800636D13F0010F17D0052384F835302268F9
:10129800136823F001031360019B01330193AB42F0
:1012A80004D823681B6813F0010FF5D1012384F8D3
:1012B8003530002384F83430E36C0BB1204698476E
:1012C80003B0F0BD00000020B5814E1B00230F2B9A
:1012D80000F2E48070B582B060E085685E000324A7
:1012E800B44025EA0405CC68B4402C4384604568C2
:1012F80025EA02054C68C4F300129A402A4342606A
:101308005AE0DC08083450F8246003F0070295001E
:101318000F22AA4026EA020E0A69AA4042EA0E02F1
:1013280040F824205CE0072200E0002202FA0EF2D6
:101338002A4302345A4D45F824205A4A14686FEA61
:101348000C0224EA0C054E6816F4803F01D04CEAE2
:101358000405544C2560646802EA04054E6816F4D6
:10136800003F01D04CEA04054E4C6560A46802EACF
:1013780004054E6816F4801F01D04CEA0405494C58
:10138800A560E46822404D6815F4001F01D04CEABE
:101398000402444CE26001330F2B7DD801229A40AD
:1013A8000C6804EA020C32EA0404F4D14C6804F034
:1013B8000304013C012C90D94A6802F00302032A75
:1013C80009D0C4685D000322AA4024EA02048A689E
:1013D800AA402243C2604A6802F00302022A90D05F
:1013E80004684FEA430E032202FA0EF224EA0204CA
:1013F8004A6802F0030202FA0EF2224302604A68C7
:1014080012F4403FC7D000220192274A546C44F49A
:1014180080445464526C02F480420192019A9C0800
:10142800A51C1F4A52F8255003F003024FEA820E0A
:101438000F2202FA0EF225EA02051C4A90423FF4F6
:1014480074AF02F5806290421AD002F58062904231
:1014580018D002F58062904216D002F58062904260
:1014680014D002F58062904212D002F58062904258
:1014780010D002F5806290423FF455AF082255E73C
:10148800012253E7022251E703224FE704224DE7E6
:1014980005224BE7062249E702B070BD704700BF3E
:1014A80000380140003C0140003802400000024082
:1014B8000AB181617047090481617047436901EA93
:1014C800030221EA030141EA0241816170470000F9
:1014D800002800F0E08170B582B00446036813F07C
:1014E800010F3BD09F4B9B6803F00C03042B2CD0BF
:1014F8009C4B9B6803F00C03082B21D06368B3F561
:10150800803F4FD0B3F5A02F52D0964B1A6822F4E3
:1015180080321A601A6822F480221A606368002BED
:1015280050D0FFF7E7FB05468E4B1B6813F4003FCE
:1015380014D1FFF7DFFB401B6428F5D90320B1E184
:10154800884B5B6813F4800FD8D0864B1B6813F464
:10155800003F03D06368002B00F09F81236813F0DD
:10156800020F54D07F4B9B6813F00C0F3ED07D4B7D
:101578009B6803F00C03082B33D0E368002B68D07A
:10158800794B01221A60FFF7B5FB0546754B1B68BE
:1015980013F0020F54D1FFF7ADFB401B0228F5D919
:1015A80003207FE16F4A136843F480331360B5E783
:1015B8006C4B1A6842F480221A601A6842F480322E
:1015C8001A60ABE7FFF796FB0546664B1B6813F4FA
:1015D800003FC3D0FFF78EFB401B6428F5D90320DA
:1015E80060E1604B5B6813F4800FC6D15D4B1B68EC
:1015F80013F0020F03D0E368012B40F05081594AE1
:10160800136823F0F803216943EAC10313602368D0
:1016180013F0080F42D063696BB3534B0122C3F830
:10162800802EFFF767FB05464E4B5B6F13F0020FEA
:1016380034D1FFF75FFB401B0228F5D9032031E1C5
:10164800484A136823F0F803216943EAC103136089
:10165800DDE7454B00221A60FFF74CFB0546414B7E
:101668001B6813F0020FD2D0FFF744FB401B02287F
:10167800F5D9032016E13C4B0022C3F8802EFFF772
:1016880039FB0546374B5B6F13F0020F06D0FFF7A7
:1016980031FB401B0228F5D9032003E1236813F02E
:1016A800040F77D02F4B1B6C13F0805F33D10023CE
:1016B80001932C4B1A6C42F080521A641B6C03F095
:1016C80080530193019B0125284B1B6813F4807FED
:1016D80023D0A368012B34D0052B38D0214B1A6FA7
:1016E80022F001021A671A6F22F004021A67A3682F
:1016F800002B3DD0FFF7FEFA06461A4B1B6F13F07E
:10170800020F46D1FFF7F6FA801B41F28833984260
:10171800F3D90320C6E00025D6E7144A136843F43A
:1017280080731360FFF7E6FA0646104B1B6813F444
:10173800807FCED1FFF7DEFA801B0228F5D903207F
:10174800B0E0084A136F43F001031367CFE7054B76
:101758001A6F42F004021A671A6F42F001021A6700
:10176800C5E700BF00380240000047420070004053
:10177800FFF7C0FA0646524B1B6F13F0020F08D052
:10178800FFF7B8FA801B41F288339842F3D9032057
:1017980088E0EDB9A369002B00F08380484A92687D
:1017A80002F00C02082A51D0022B17D0454B002218
:1017B8001A66FFF79FFA0446414B1B6813F0007F37
:1017C80042D0FFF797FA001B0228F5D9032069E0F9
:1017D8003B4A136C23F080531364DBE7394B002238
:1017E8001A66FFF787FA0546354B1B6813F0007F2A
:1017F80006D0FFF77FFA401B0228F5D9032051E0F5
:10180800E369226A1343626A43EA8213A26A5208AE
:10181800013A43EA0243E26A43EA0263284A536010
:10182800284B01221A66FFF765FA0446244B1B6809
:1018380013F0007F06D1FFF75DFA001B0228F5D9E7
:1018480003202FE000202DE000202BE0012B2BD0DF
:101858001B4B5B6803F48001E269914226D103F0D7
:101868003F02216A8A4223D1616A47F6C0721A4050
:10187800B2EB811F1ED103F44031A26A5208013A2B
:10188800B1EB024F18D103F07063E26AB3EB026F59
:1018980014D1002006E001207047012002E0012059
:1018A80000E0002002B070BD0120FBE70120F9E74D
:1018B8000120F7E70120F5E70120F3E70120F1E730
:1018C800003802400000474208B5314B9B6803F0DE
:1018D8000C03042B57D0082B57D12D4B5A6802F014
:1018E8003F025B6813F4800F2AD0294B5968C1F373
:1018F800881C4FEA4C11B1EB0C006EEB0E0E4FEA50
:101908008E1343EA90638101091A63EB0E03DB002F
:1019180043EA5173C90011EB0C0C43F1000359025F
:1019280000234FEA4C2041EADC51FEF751FC184BEA
:101938005B68C3F3014301335B00B0FBF3F025E0C0
:10194800134B5968C1F3881C4FEA4C11B1EB0C00DA
:101958006EEB0E0E4FEA8E1343EA90638101091A6B
:1019680063EB0E03DB0043EA5173C90011EB0C0C67
:1019780043F10003990200234FEA8C2041EA9C516D
:10198800FEF726FCD3E7034800E0034808BD00BF84
:101998000038024000127A000024F400002800F009
:1019A8009B8070B50D4604464F4B1B6803F0070338
:1019B8008B4208D2CBB24C4A1370136803F007036A
:1019C8008B4240F08B80236813F0020F17D013F07E
:1019D800040F04D0454A936843F4E05393602368A6
:1019E80013F0080F04D0414A936843F460439360AE
:1019F8003E4A936823F0F003A1680B439360236881
:101A080013F0010F32D06368012B21D09A1E012AEE
:101A180025D9364A126812F0020F61D033498A6814
:101A280022F0030213438B60FFF764F906462F4B3D
:101A38009B6803F00C036268B3EB820F16D0FFF7C4
:101A480059F9801B41F288339842F0D9032042E0CB
:101A5800264A126812F4003FE0D101203BE0234AF5
:101A6800126812F0007FD9D1012034E01E4B1B68A8
:101A780003F00703AB4207D9EAB21B4B1A701B6885
:101A880003F00703AB422DD1236813F0040F06D0EF
:101A9800164A936823F4E053E1680B439360236884
:101AA80013F0080F07D0114A936823F460432169A3
:101AB80043EAC1039360FFF707FF0C4B9B68C3F32E
:101AC80003130B4AD35CD8400A4B18600A4B1868BA
:101AD800FFF7C4F8002070BD012070470120FAE725
:101AE8000120F8E70120F6E7003C024000380240F8
:101AF800182800080000002008000020014B186882
:101B0800704700BF0000002008B5FFF7F7FF044B3F
:101B18009B68C3F38223034AD35CD84008BD00BF47
:101B2800003802402828000808B5FFF7E7FF044BF3
:101B38009B68C3F34233034AD35CD84008BD00BF57
:101B480000380240282800082DE9F04782B00546F1
:101B5800884617461E46FFF7CDF80A9B1B1A03EB6B
:101B68000609FFF7C7F882462B4B1B68C3F3CB3334
:101B780009FB03F301932B689C6838EA04030CBF44
:101B88004FF0010C4FF0000CBC4540D0B6F1FF3FC0
:101B9800F1D0FFF7AFF8A0EB0A0048450AD2B9F137
:101BA800000F07D0019A02B14A46019B013B0193FD
:101BB8009146E0E72A68536823F0E00353606B68B6
:101BC800B3F5827F0BD0AB6AB3F5005F14D0012365
:101BD80085F85130002385F85030032018E0AB68B1
:101BE800B3F5004F02D0B3F5806FECD12A681368C3
:101BF80023F040031360E6E72A68136823F40053D0
:101C080013602A68136843F400531360DFE7002069
:101C180002B0BDE8F08700BF0000002010B584B016
:101C28000446164B1868164BA3FB0030400D4FF4C2
:101C38007A7303FB00F003906368B3F5827F0BD0DF
:101C4800039BBBB1039B013B039323689B6813F081
:101C5800800FF5D100200EE000920B460022802173
:101C68002046FFF771FF30B1636D43F020036365D1
:101C7800032000E0002004B010BD00BF00000020D9
:101C8800819F5E1600285AD010B50446436A33B9BE
:101C98004368B3F5827F05D00023C36102E00023C7
:101CA800036143610023A36294F85130002B40D0B4
:101CB800022384F851302268136823F0400313602C
:101CC800636803F48273A26802F404421343E2686F
:101CD80002F400621343226902F0020213436269AC
:101CE80002F001021343A26902F400721343E2698D
:101CF80002F038021343226A02F080021343A26AF8
:101D080002F40052216813430B60638B03F0040351
:101D1800626A02F01002216813434B602268D3699B
:101D280023F40063D36100206065012384F85130F7
:101D380010BD84F850302046FEF746FDB8E7012074
:101D48007047000038B590F85030012B61D0044638
:101D5800012380F8503090F85150EDB29D4252D195
:101D6800002951D0002A4FD0032380F85130002396
:101D7800436501638286C286836343640364838701
:101D8800C3878368B3F5004F2AD0A36C224A1A642C
:101D9800A36C224ADA63A36C214ADA64A36C00229A
:101DA8001A652268E38E9BB20C32216BA06CFFF798
:101DB8000DF90146F8B923681A6812F0400F03D1EB
:101DC8001A6842F040021A602268536843F0200300
:101DD80053602268536843F0020353600D4613E0D2
:101DE8000268136823F0400313600268136843F421
:101DF80080431360C9E7636D43F0100363650123F3
:101E080084F8513000E00225002384F85030284639
:101E180038BD0225FBE700BF311E00085F1E000821
:101E28003D1E00087047704708B5806BFFF7FBFF41
:101E380008BD704708B5806B0268536823F0030338
:101E48005360436D43F010034365012380F851301C
:101E5800FFF7EFFF08BD30B583B00546846BFEF78A
:101E680049FF2B681B6813F4807F23D10246216841
:101E78004B6823F020034B6021684B6823F0020372
:101E88004B6064212046FFF7C9FE18B1636D43F02B
:101E980020036365A36833B901932368DA68019264
:101EA8009B680193019B0023E386012384F851304A
:101EB800636D23B92046FFF7B5FF03B030BD204658
:101EC800FFF7B7FFF9E7000030B585B004460268B0
:101ED80051689368C3F3801013F0400F05D113F0D5
:101EE800010F02D011F0400F69D113F0020F02D098
:101EF80011F0800F67D1C3F3401513F0200F03D101
:101F080010B913F4807F61D011F0200F5ED078B142
:101F180094F85100C0B203285AD0606D40F0040014
:101F2800606500200090D06800909068009000984C
:101F380065B1606D40F00100606500200290906816
:101F48000290106820F040001060029A13F4807F1D
:101F580009D0636D43F00803636500230393236886
:101F68009B680393039B636D002B2FD022685368F3
:101F780023F0E0035360012384F8513011F0030F7C
:101F88002ED02268536823F003035360E36C4BB1EF
:101F9800154A1A65E06CFFF798F818B1636D43F0BD
:101FA80040036365A36C8BB10F4A1A65A06CFFF7F9
:101FB8008CF858B1636D43F04003636506E0236C09
:101FC8002046984702E0636C2046984705B030BD2C
:101FD80000230193D368019393680193019BF5E76C
:101FE8002046FFF726FFF1E7F51F000808B5806BCC
:101FF8000023C387C386FFF71CFF08BD026802F1F0
:102008000C0353E8003F23F0C0030C3242E80031D0
:102018000029F3D1202380F83D307047026802F18F
:102028000C0353E8003F23F490730C3242E800316C
:102038000029F3D1026802F1140353E8003F23F0AA
:102048000103143242E800310029F3D1036B012B5C
:1020580005D0202380F83E300023036370470268D0
:1020680002F10C0353E8003F23F010030C3242E85E
:1020780000310029F3D1ECE790F83D30DBB2212B99
:1020880001D0022070478368B3F5805F17D0036AD8
:102098005A1C02621A7803685A60C38C9BB2013BCF
:1020A8009BB2C3844BB90268D36823F08003D36022
:1020B8000268D36843F04003D36000207047036987
:1020C800002BE4D1036A1B880268C3F3080353603A
:1020D800036A02330362E0E738B50446026813690D
:1020E80023F44053C1680B431361836802691343A7
:1020F80042691343C2691A430168CB6823F4164343
:1021080023F00C031343CB600268536923F4407334
:1021180081690B4353610368314A934206D002F543
:102128008062934202D0FFF7EFFC01E0FFF7FCFC6E
:10213800E369B3F5004F29D00021031849411B1862
:1021480041F10001C90041EA5371DB0018186368C6
:102158004FEA83024FEA937341F10001FEF738F822
:10216800204DA5FB00325109642303FB11031B0119
:102178003233A5FB03235B0903F0F00202EB0112E3
:1021880003F00F03216813448B6038BD0023021845
:1021980043EB0301121841F10001C90041EA5271F1
:1021A800D200101841F10001626892185B41FEF7F5
:1021B8000FF80C4DA5FB00325109642303FB1103F2
:1021C800DB003233A5FB03235B095A0002F4F872E3
:1021D80002EB011203F00703216813448B60D4E774
:1021E800001001401F85EB5158B310B5044690F814
:1021F8003D300BB3242384F83D302268D36823F4A0
:102208000053D3602046FFF767FF2268136923F461
:10221800904313612268536923F02A0353612268AB
:10222800D36843F40053D36000202064202384F84B
:102238003D3084F83E3010BD80F83C30FEF786FB18
:10224800D8E701207047000038B590F83D30DBB280
:10225800202B38D10446002937D0002A37D090F8EF
:102268003C30012B35D0012380F83C300162828458
:10227800C28400250564212380F83D30436B16484D
:10228800D863636B15481864636B1548D864636B2F
:102298001D6520681346021D606BFEF797FE2368D4
:1022A8006FF040021A6084F83C50226802F114036F
:1022B80053E8003F43F08003143242E8003100291C
:1022C800F3D1002000E0022038BD0120FCE7012006
:1022D800FAE70220F8E700BFEF22000857230008BA
:1022E80065230008704708B50346806B1B681B68A8
:1022F80013F4807F1AD10023C384026802F1140307
:1023080053E8003F23F08003143242E800310029EB
:10231800F3D1026802F10C0353E8003F43F0400395
:102328000C3242E800310029F3D108BDFFF7DAFF8B
:10233800FBE708B50168CA6822F04002CA6020229B
:1023480080F83D20FFF7CEFF002008BD704708B594
:10235800806BFFF7FBFF08BD7047704710B5846BB3
:1023680023685A6994F83D30DBB2212B10D02368DA
:102378005A6902F0400294F83E30DBB2222B11D0A9
:10238800236C43F0100323642046FFF7E6FF10BDDB
:1023980002F08002002AEAD00023E3842046FFF7F7
:1023A8002DFEE4E7002AEBD00023E3852046FFF763
:1023B80035FEE5E708B5806B0023C385C384FFF7C6
:1023C800CCFF08BD704790F83E30DBB2222B67D1B6
:1023D8008368B3F5805F4DD0826AB3F5805F04D01F
:1023E800002B54D10369002B51D103685B6813702B
:1023F800836A01338362C38D9BB2013B9BB2C38561
:10240800002B4FD100B583B00268D36823F02003B6
:10241800D3600268D36823F48073D3600268536979
:1024280023F001035361202380F83E30036B012B16
:1024380033D100230363026802F10C0353E8003F21
:1024480023F010030C3242E800310029F3D103686D
:102458001A6812F0100F06D0002201921A68019231
:102468005B680193019B818DFFF7ACFF002003B0EF
:102478005DF804FB0269002AAED1826A03685B68D2
:10248800C3F308031380836A02338362B3E70368E4
:102498005B6803F07F031370AAE7FFF75DFFE5E7CA
:1024A800022070470020704730B583B004460268A8
:1024B8001368D068516913F00F0505D113F0200F88
:1024C80002D010F0200F19D12DB111F0010119D14E
:1024D80010F4907F16D1216B01297DD013F0800F65
:1024E80003D010F0800F40F0158113F0400F03D097
:1024F80010F0400F40F0128103B030BD2046FFF7C6
:1025080062FFF9E713F0010F06D010F4807F03D0C3
:10251800226C42F00102226413F0040F04D019B1B6
:10252800226C42F00202226413F0020F04D019B1A7
:10253800226C42F00402226413F0080F07D010F056
:10254800200F00D119B1226C42F008022264226CDB
:10255800002AD1D013F0200F02D010F0200F29D17B
:1025680023685B6903F04003226C12F0080F00D166
:1025780063B32046FFF752FD23685B6913F0400FF1
:1025880020D0226802F1140353E8003F23F04003EF
:10259800143242E800310029F3D1A36B73B1614AC8
:1025A8001A65A06BFEF791FD0028A5D0A06B036DFE
:1025B8009847A1E72046FFF706FFD1E72046FFF737
:1025C800CCFE99E72046FFF7C8FE95E72046FFF7BF
:1025D800C4FE002323648FE713F0100F3FF47EAF8F
:1025E80010F0100F3FF47AAF0023019313680193A2
:1025F80053680193019B536913F0400F50D0A26BAD
:1026080013685B689BB2002B3FF476AFA18D9942AB
:102618007FF672AFE385D369B3F5807F37D0226840
:1026280002F10C0353E8003F23F480730C3242E8B4
:1026380000310029F3D1226802F1140353E8003F66
:1026480023F00103143242E800310029F3D1226853
:1026580002F1140353E8003F23F04003143242E828
:1026680000310029F3D1202384F83E30002323636E
:10267800226802F10C0353E8003F23F010030C32E8
:1026880042E800310029F3D1A06BFEF7D4FCA18DFC
:10269800E38D9BB2C91A89B22046FFF793FE2BE758
:1026A800A18DE38D9BB2C91A89B2E38D9BB2002B31
:1026B8003FF422AF00293FF41FAF226802F10C0358
:1026C80053E8003F23F490730C3242E800300028AE
:1026D800F3D1226802F1140353E8003F23F0010309
:1026E800143242E800300028F3D1202384F83E3029
:1026F80000232363226802F10C0353E8003F23F010
:1027080010030C3242E800300028F3D12046FFF7CE
:1027180059FEF1E62046FFF7AFFCEDE62046FFF74D
:1027280008FEE9E6BD230008DFF834D00D480E495D
:102738000E4A002302E0D458C4500433C4188C4213
:10274800F9D30B4A0B4C002301E013600432A24278
:10275800FBD3FEF7D7F800F011F8FDF7B5FF704787
:1027680000000220000000200C000020902A000831
:102778000C00002088010020FEE7000070B50D4D18
:102788000D4C641BA4100026A64209D10B4D0C4C1D
:1027980000F020F8641BA4100026A64205D170BDE5
:1027A80055F8043B98470136EEE755F8043B98473F
:1027B8000136F2E7882A0008882A0008882A0008D3
:1027C8008C2A000802440346934200D1704703F85C
:1027D800011BF9E7F8B500BFF8BC08BC9E46704776
:0C27E800F8B500BFF8BC08BC9E46704766
:1027F4006162630048656C6C6F20776F726C642152
:102804000000000068656C6C6F20776F726C640A5E
:1028140000000000000000000000000001020304AA
:10282400060708090000000001020304000608204E
:102834000000000000000000002F0000000007005E
:10284400070000147F147F1400242A7F2A12002317
:102854001308646200364955225000000503000045
:1028640000001C224100000041221C000014083E0C
:1028740008140008083E0808000000A060000008D2
:102884000808080800006060000000201008040226
:10289400003E5149453E0000427F400000426151E4
:1028A4004946002141454B31001814127F1000277E
:1028B40045454539003C4A49493000017109050341
:1028C40000364949493600064949291E0000363672
:1028D40000000000563600000008142241000014D5
:1028E40014141414000041221408000201510906B2
:1028F40000324959513E007C1211127C007F494933
:102904004936003E41414122007F4141221C007F63
:1029140049494941007F09090901003E4149497A71
:10292400007F0808087F0000417F410000204041EB
:102934003F01007F08142241007F40404040007F57
:10294400020C027F007F0408107F003E4141413E9B
:10295400007F09090906003E4151215E007F0919E3
:1029640029460046494949310001017F0101003FE0
:102974004040403F001F2040201F003F4038403F60
:1029840000631408146300070870080700615149C4
:10299400454300007F41410000552A552A55000057
:1029A40041417F00000402010204004040404040D5
:1029B400000001020400002054545478007F48446D
:1029C400443800384444442000384444487F0038A4
:1029D4005454541800087E0901020018A4A4A47CCD
:1029E400007F080404780000447D40000040808497
:1029F4007D00007F102844000000417F4000007CDF
:102A040004180478007C08040478003844444438EA
:102A140000FC242424180018242418FC007C080436
:102A2400040800485454542000043F444020003C0F
:102A34004040207C001C2040201C003C4030403C96
:102A4400004428102844001CA0A0A07C0044645426
:102A54004C440000087700000000007F00000000E4
:102A6400770800000010081008001414141414143B
:0C2A7400000000000006101600061016FE
:082A800088D7FF7F0100000070
:042A8800AD01000894
:042A8C0089010008B4
:0C2A90000024F400010000001000000011
:040000050800273197
:00000001FF
