:020000040800F2
:100000000000022035190008B9070008BB070008E6
:10001000BD070008BF070008C10700080000000076
:10002000000000000000000000000000C3070008FE
:10003000C507000800000000C7070008C90700083E
:100040008519000885190008851900088519000818
:100050008519000885190008851900088519000808
:1000600085190008851900088519000885190008F8
:1000700085190008851900088519000885190008E8
:1000800085190008851900088519000885190008D8
:1000900085190008851900088519000885190008C8
:1000A00085190008851900088519000885190008B8
:1000B00085190008851900088519000885190008A8
:1000C0008519000885190008851900088519000898
:1000D0008519000885190008851900088519000888
:1000E0008519000885190008851900088519000878
:1000F0008519000885190008851900088519000868
:100100008519000885190008851900088519000857
:100110008519000885190008851900088519000847
:100120008519000885190008851900088519000837
:100130008519000800000000000000008519000873
:100140008519000885190008851900088519000817
:100150008519000885190008851900088519000807
:1001600085190008851900088519000885190008F7
:100170008519000885190008000000000000000033
:0801800085190008851900082B
:1001880010B5054C237833B9044B13B10448AFF3C9
:1001980000800123237010BD0C0000200000000027
:1001A800E019000808B5034B1BB103490348AFF336
:1001B800008008BD0000000010000020E0190008C1
:1001C80053B94AB9002908BF00281CBF4FF0FF31B6
:1001D8004FF0FF3000F074B9ADF1080C6DE904CEB2
:1001E80000F006F8DDF804E0DDE9022304B070470A
:1001F8002DE9F047089D04468E46002B4DD18A42D2
:10020800944669D9B2FA82F252B101FA02F3C2F104
:10021800200120FA01F10CFA02FC41EA030E944095
:100228004FEA1C48210CBEFBF8F61FFA8CF708FBB6
:1002380016E341EA034306FB07F199420AD91CEB8E
:10024800030306F1FF3080F01F81994240F21C81C0
:10025800023E63445B1AA4B2B3FBF8F008FB103308
:1002680044EA034400FB07F7A7420AD91CEB04043D
:1002780000F1FF3380F00A81A74240F2078164440D
:10028800023840EA0640E41B00261DB1D440002392
:10029800C5E900433146BDE8F0878B4209D9002DF6
:1002A80000F0EF800026C5E9000130463146BDE880
:1002B800F087B3FA83F6002E4AD18B4202D38242EA
:1002C80000F2F980841A61EB030301209E46002D99
:1002D800E0D0C5E9004EDDE702B9FFDEB2FA82F2EE
:1002E800002A40F09280A1EB0C014FEA1C471FFA4C
:1002F8008CFE0126200CB1FBF7F307FB131140EA33
:1003080001410EFB03F0884208D91CEB010103F1FF
:10031800FF3802D2884200F2CB804346091AA4B2C1
:10032800B1FBF7F007FB101144EA01440EFB00FE95
:10033800A64508D91CEB040400F1FF3102D2A645FA
:1003480000F2BB800846A4EB0E0440EA03409CE799
:10035800C6F12007B34022FA07FC4CEA030C20FA46
:1003680007F401FA06F31C43F9404FEA1C4900FA66
:1003780006F3B1FBF9F8200C1FFA8CFE09FB1811E3
:1003880040EA014108FB0EF0884202FA06F20BD956
:100398001CEB010108F1FF3A80F08880884240F2A6
:1003A8008580A8F102086144091AA4B2B1FBF9F0EA
:1003B80009FB101144EA014100FB0EFE8E4508D9E5
:1003C8001CEB010100F1FF346CD28E456AD902386A
:1003D800614440EA0840A0FB0294A1EB0E01A1424F
:1003E800C846A64656D353D05DB1B3EB080261EBBD
:1003F8000E0101FA07F722FA06F3F1401F43C5E997
:10040800007100263146BDE8F087C2F12003D840CC
:100418000CFA02FC21FA03F3914001434FEA1C470E
:100428001FFA8CFEB3FBF7F007FB10360B0C43EA00
:10043800064300FB0EF69E4204FA02F408D91CEBB0
:10044800030300F1FF382FD29E422DD902386344AE
:100458009B1B89B2B3FBF7F607FB163341EA03414E
:1004680006FB0EF38B4208D91CEB010106F1FF389D
:1004780016D28B4214D9023E6144C91A46EA004694
:1004880038E72E46284605E70646E3E61846F8E626
:100498004B45A9D2B9EB020864EB0C0E0138A3E76F
:1004A8004646EAE7204694E74046D1E7D0467BE750
:1004B800023B614432E7304609E76444023842E7C8
:1004C800704700BF2DE9F0418AB0002405940694D6
:1004D80007940894099401942C4B1A6B42F08002FB
:1004E8001A631A6B02F080020192019A02941A6B45
:1004F80042F001021A631A6B02F001020292029A98
:1005080003941A6B42F004021A631A6B02F0040295
:100518000392039A04941A6B42F002021A631B6B4B
:1005280003F002030493049BDFF86C802246402109
:10053800404600F01DFC164F22463021384600F098
:1005480017FC144E2246F021304600F011FC4023DF
:100558000593012506950794089405A9404600F0DF
:1005680015FB3023059306950794089405A938468A
:1005780000F00CFBF023059306950794089405A951
:10058800304600F003FB0AB0BDE8F08100380240B5
:1005980000080240000402400000024072B6FEE774
:1005A80000B595B03022002108A801F00DFA00230B
:1005B8000393049305930693079301931E4A116CC2
:1005C80041F080511164126C02F080520192019A3C
:1005D80002931A4B1A6842F480421A601B6803F4AB
:1005E80080430293029B012308934FF480330993BD
:1005F80002220E924FF480030F930423109340219C
:1006080011911292139308A800F0C2FB80B90F232E
:10061800039302210491002305934FF4805206921C
:10062800079303A800F01AFE20B915B05DF804FB83
:10063800FFF7B4FFFFF7B2FF003802400070004038
:1006480010B500F005FAFFF7ABFFFFF73BFF00F02E
:1006580035F800F0C3F8184C01228021204600F03C
:1006680087FB01224021204600F082FB0122202145
:10067800204600F07DFB01221021204600F078FB87
:1006880000F026F900F0B9F94FF4FA6000F00CFA1E
:1006980000F0AEF900F002FA84B200F0FFF9001B96
:1006A800B0F57A7FF9D98021034800F067FB00F0A4
:1006B800F5F984B2F1E700BF0004024008B510481C
:1006C800104B03604FF4827343604FF40043836020
:1006D8000023C36002220261012242614FF40072CA
:1006E80082612822C2610362436283620A23C36271
:1006F80000F028FF00B908BDFFF750FFFBE700BF77
:10070800280000200030014000B589B00023039381
:1007180004930593069307930268154B9A4202D0F7
:1007280009B05DF804FB0021019103F584335A6C8C
:1007380042F480525A645A6C02F480520192019A2F
:1007480002911A6B42F001021A631B6B03F001035A
:100758000293029BA023039302230493032306938B
:100768000523079303A9034800F010FAD8E700BF50
:10077800003001400000024082B0002100910B4B84
:100788005A6C42F480425A645A6C02F480420092D5
:10079800009A01911A6C42F080521A641B6C03F0A3
:1007A80080530193019B02B0704700BF003802409C
:1007B800FEE7FEE7FEE7FEE7FEE770477047704793
:1007C80008B500F05FF908BD034AD2F8883043F451
:1007D8007003C2F88830704700ED00E008B50A4899
:1007E8000A4B03604FF4E133436000238360C36026
:1007F80003610C2242618361C36101F067F800B9AB
:1008080008BDFFF7CBFEFBE7800000200044004056
:1008180000B589B0002303930493059306930793C7
:100828000268154B9A4202D009B05DF804FB00211A
:10083800019103F5FA331A6C42F400321A641A6C07
:1008480002F400320192019A02911A6B42F00102FD
:100858001A631B6B03F001030293029B0C2303939F
:1008680002230493032306930723079303A903484A
:1008780000F08CF9D8E700BF0044004000000240B7
:1008880000B583B08DF807000A2301220DF1070196
:10089800024800F0B6FE03B05DF804FB2800002013
:1008A80038B50546094C00221021204600F060FAB0
:1008B80000222021204600F05BFA2846FFF7E0FFDF
:1008C80001222021204600F053FA38BD00080240DA
:1008D80010B52C4C01221021204600F049FA0122C3
:1008E8002021204600F044FAA4F5006401224021AA
:1008F800204600F03DFA012000F0D6F80022402101
:10090800204600F035FA012000F0CEF801224021FF
:10091800204600F02DFAA820FFF7C2FF3F20FFF77E
:10092800BFFFD320FFF7BCFF0020FFF7B9FF40202F
:10093800FFF7B6FFA020FFF7B3FFC020FFF7B0FF17
:10094800DA20FFF7ADFF0220FFF7AAFF8120FFF7AB
:10095800A7FF7F20FFF7A4FFA420FFF7A1FFA62091
:10096800FFF79EFFD520FFF79BFF8020FFF798FF3A
:100978008D20FFF795FF1420FFF792FFAF20FFF7B8
:100988008FFF10BD0008024038B50546094C01220A
:100998001021204600F0ECF900222021204600F02A
:1009A800E7F92846FFF76CFF01222021204600F0D6
:1009B800DFF938BD0008024070B50546AE20FFF7E4
:1009C8006FFF2020FFF76CFF0020FFF769FF00266C
:1009D80006E02846FFF7D8FF01347F2CF9DD013601
:1009E800072E01DC0024F8E7AF20FFF759FF70BDA0
:1009F80008B50020FFF7E0FF08BD08B5FF20FFF7A6
:100A0800DBFF08BD10B504460E4B18784FF47A7317
:100A1800B3FBF0F30C4A1068B0FBF3F000F0A2F857
:100A280068B90F2C01D901200AE0002221464FF0B5
:100A3800FF3000F05FF8054B1C60002000E001204B
:100A480010BD00BF040000200000002008000020A6
:100A580008B50B4B1A6842F400721A601A6842F41F
:100A680080621A601A6842F480721A60032000F0EB
:100A78002FF80F20FFF7C6FFFFF77EFE002008BD06
:100A8800003C0240034A1168034B1B780B44136077
:100A9800704700BFC400002004000020014B186804
:100AA800704700BFC400002038B50446FFF7F6FFC2
:100AB8000546B4F1FF3F02D0044B1B781C44FFF7F6
:100AC800EDFF401BA042FAD338BD00BF0400002050
:100AD800074AD36823F4E0631B041B0C000200F4EC
:100AE800E060034343F0BF6343F40033D3607047CF
:100AF80000ED00E000B5194BDB68C3F30223C3F136
:100B0800070CBCF1040F28BF4FF0040C03F1040ECE
:100B1800BEF1060F18D9033B4FF0FF3E0EFA0CFC4E
:100B280021EA0C0199400EFA03F322EA0303194360
:100B380000280BDB0901C9B200F1604000F56140F3
:100B480080F800135DF804FB0023E5E700F00F00D0
:100B58000901C9B2024B1954F4E700BF00ED00E0E7
:100B680014ED00E00138B0F1807F0BD24FF0E023A4
:100B78005861054AF02182F8231000209861072265
:100B88001A6170470120704700ED00E000230F2B29
:100B980000F2E48070B582B060E085685E000324EE
:100BA800B44025EA0405CC68B4402C438460456809
:100BB80025EA02054C68C4F300129A402A434260B1
:100BC8005AE0DC08083450F8246003F00702950066
:100BD8000F22AA4026EA020E0A69AA4042EA0E0239
:100BE80040F824205CE0072200E0002202FA0EF21E
:100BF8002A4302345A4D45F824205A4A14686FEAA9
:100C08000C0224EA0C054E6816F4803F01D04CEA29
:100C18000405544C2560646802EA04054E6816F41D
:100C2800003F01D04CEA04054E4C6560A46802EA16
:100C380004054E6816F4801F01D04CEA0405494C9F
:100C4800A560E46822404D6815F4001F01D04CEA05
:100C58000402444CE26001330F2B7DD801229A40F4
:100C68000C6804EA020C32EA0404F4D14C6804F07B
:100C78000304013C012C90D94A6802F00302032ABC
:100C880009D0C4685D000322AA4024EA02048A68E5
:100C9800AA402243C2604A6802F00302022A90D0A6
:100CA80004684FEA430E032202FA0EF224EA020411
:100CB8004A6802F0030202FA0EF2224302604A680E
:100CC80012F4403FC7D000220192274A546C44F4E2
:100CD80080445464526C02F480420192019A9C0848
:100CE800A51C1F4A52F8255003F003024FEA820E52
:100CF8000F2202FA0EF225EA02051C4A90423FF43E
:100D080074AF02F5806290421AD002F58062904278
:100D180018D002F58062904216D002F580629042A7
:100D280014D002F58062904212D002F5806290429F
:100D380010D002F5806290423FF455AF082255E783
:100D4800012253E7022251E703224FE704224DE72D
:100D580005224BE7062249E702B070BD704700BF85
:100D680000380140003C01400038024000000240C9
:100D78000AB181617047090481617047436901EADA
:100D8800030221EA030141EA024181617047000040
:100D9800002800F0E08170B582B00446036813F0C3
:100DA800010F3BD09F4B9B6803F00C03042B2CD006
:100DB8009C4B9B6803F00C03082B21D06368B3F5A8
:100DC800803F4FD0B3F5A02F52D0964B1A6822F42B
:100DD80080321A601A6822F480221A606368002B35
:100DE80050D0FFF75BFE05468E4B1B6813F4003F9F
:100DF80014D1FFF753FE401B6428F5D90320B1E155
:100E0800884B5B6813F4800FD8D0864B1B6813F4AB
:100E1800003F03D06368002B00F09F81236813F024
:100E2800020F54D07F4B9B6813F00C0F3ED07D4BC4
:100E38009B6803F00C03082B33D0E368002B68D0C1
:100E4800794B01221A60FFF729FE0546754B1B688E
:100E580013F0020F54D1FFF721FE401B0228F5D9E9
:100E680003207FE16F4A136843F480331360B5E7CA
:100E78006C4B1A6842F480221A601A6842F4803275
:100E88001A60ABE7FFF70AFE0546664B1B6813F4CA
:100E9800003FC3D0FFF702FE401B6428F5D90320AA
:100EA80060E1604B5B6813F4800FC6D15D4B1B6833
:100EB80013F0020F03D0E368012B40F05081594A28
:100EC800136823F0F803216943EAC1031360236818
:100ED80013F0080F42D063696BB3534B0122C3F878
:100EE800802EFFF7DBFD05464E4B5B6F13F0020FBC
:100EF80034D1FFF7D3FD401B0228F5D9032031E197
:100F0800484A136823F0F803216943EAC1031360D0
:100F1800DDE7454B00221A60FFF7C0FD0546414B4F
:100F28001B6813F0020FD2D0FFF7B8FD401B022850
:100F3800F5D9032016E13C4B0022C3F8802EFFF7B9
:100F4800ADFD0546374B5B6F13F0020F06D0FFF778
:100F5800A5FD401B0228F5D9032003E1236813F0FF
:100F6800040F77D02F4B1B6C13F0805F33D1002315
:100F780001932C4B1A6C42F080521A641B6C03F0DC
:100F880080530193019B0125284B1B6813F4807F34
:100F980023D0A368012B34D0052B38D0214B1A6FEE
:100FA80022F001021A671A6F22F004021A67A36876
:100FB800002B3DD0FFF772FD06461A4B1B6F13F04E
:100FC800020F46D1FFF76AFD801B41F28833984231
:100FD800F3D90320C6E00025D6E7144A136843F482
:100FE80080731360FFF75AFD0646104B1B6813F415
:100FF800807FCED1FFF752FD801B0228F5D9032050
:10100800B0E0084A136F43F001031367CFE7054BBD
:101018001A6F42F004021A671A6F42F001021A6747
:10102800C5E700BF0038024000004742007000409A
:10103800FFF734FD0646524B1B6F13F0020F08D022
:10104800FFF72CFD801B41F288339842F3D9032027
:1010580088E0EDB9A369002B00F08380484A9268C4
:1010680002F00C02082A51D0022B17D0454B00225F
:101078001A66FFF713FD0446414B1B6813F0007F07
:1010880042D0FFF70BFD001B0228F5D9032069E0C9
:101098003B4A136C23F080531364DBE7394B00227F
:1010A8001A66FFF7FBFC0546354B1B6813F0007FFB
:1010B80006D0FFF7F3FC401B0228F5D9032051E0C6
:1010C800E369226A1343626A43EA8213A26A5208F6
:1010D800013A43EA0243E26A43EA0263284A536058
:1010E800284B01221A66FFF7D9FC0446244B1B68DB
:1010F80013F0007F06D1FFF7D1FC001B0228F5D9B9
:1011080003202FE000202DE000202BE0012B2BD026
:101118001B4B5B6803F48001E269914226D103F01E
:101128003F02216A8A4223D1616A47F6C0721A4097
:10113800B2EB811F1ED103F44031A26A5208013A72
:10114800B1EB024F18D103F07063E26AB3EB026FA0
:1011580014D1002006E001207047012002E00120A0
:1011680000E0002002B070BD0120FBE70120F9E794
:101178000120F7E70120F5E70120F3E70120F1E777
:10118800003802400000474208B5314B9B6803F025
:101198000C03042B57D0082B57D12D4B5A6802F05B
:1011A8003F025B6813F4800F2AD0294B5968C1F3BA
:1011B800881C4FEA4C11B1EB0C006EEB0E0E4FEA97
:1011C8008E1343EA90638101091A63EB0E03DB0077
:1011D80043EA5173C90011EB0C0C43F100035902A7
:1011E80000234FEA4C2041EADC51FEF7E9FF184B97
:1011F8005B68C3F3014301335B00B0FBF3F025E008
:10120800134B5968C1F3881C4FEA4C11B1EB0C0021
:101218006EEB0E0E4FEA8E1343EA90638101091AB2
:1012280063EB0E03DB0043EA5173C90011EB0C0CAE
:1012380043F10003990200234FEA8C2041EA9C51B4
:10124800FEF7BEFFD3E7034800E0034808BD00BF30
:101258000038024000127A000024F400002800F050
:101268009B8070B50D4604464F4B1B6803F007037F
:101278008B4208D2CBB24C4A1370136803F00703B1
:101288008B4240F08B80236813F0020F17D013F0C5
:10129800040F04D0454A936843F4E05393602368ED
:1012A80013F0080F04D0414A936843F460439360F5
:1012B8003E4A936823F0F003A1680B4393602368C8
:1012C80013F0010F32D06368012B21D09A1E012A36
:1012D80025D9364A126812F0020F61D033498A685C
:1012E80022F0030213438B60FFF7D8FB06462F4B0F
:1012F8009B6803F00C036268B3EB820F16D0FFF70C
:10130800CDFB801B41F288339842F0D9032042E09C
:10131800264A126812F4003FE0D101203BE0234A3C
:10132800126812F0007FD9D1012034E01E4B1B68EF
:1013380003F00703AB4207D9EAB21B4B1A701B68CC
:1013480003F00703AB422DD1236813F0040F06D036
:10135800164A936823F4E053E1680B4393602368CB
:1013680013F0080F07D0114A936823F460432169EA
:1013780043EAC1039360FFF707FF0C4B9B68C3F375
:1013880003130B4AD35CD8400A4B18600A4B186801
:10139800FFF738FB002070BD012070470120FAE7F5
:1013A8000120F8E70120F6E7003C0240003802403F
:1013B800F81900080000002008000020014B1868F8
:1013C800704700BF0000002008B5FFF7F7FF044B87
:1013D8009B68C3F38223034AD35CD84008BD00BF8F
:1013E80000380240081A000808B5FFF7E7FF044B69
:1013F8009B68C3F34233034AD35CD84008BD00BF9F
:1014080000380240081A00082DE9F04782B0054666
:10141800884617461E46FFF741FB0A9B1B1A03EB3B
:101428000609FFF73BFB82462B4B1B68C3F3CB3304
:1014380009FB03F301932B689C6838EA04030CBF8B
:101448004FF0010C4FF0000CBC4540D0B6F1FF3F07
:10145800F1D0FFF723FBA0EB0A0048450AD2B9F107
:10146800000F07D0019A02B14A46019B013B019344
:101478009146E0E72A68536823F0E00353606B68FD
:10148800B3F5827F0BD0AB6AB3F5005F14D00123AC
:1014980085F85130002385F85030032018E0AB68F8
:1014A800B3F5004F02D0B3F5806FECD12A6813680A
:1014B80023F040031360E6E72A68136823F4005317
:1014C80013602A68136843F400531360DFE70020B1
:1014D80002B0BDE8F08700BF0000002010B584B05E
:1014E8000446164B1868164BA3FB0030400D4FF40A
:1014F8007A7303FB00F003906368B3F5827F0BD027
:10150800039BBBB1039B013B039323689B6813F0C8
:10151800800FF5D100200EE000920B4600228021BA
:101528002046FFF771FF30B1636D43F02003636518
:10153800032000E0002004B010BD00BF0000002020
:10154800819F5E1600285AD010B50446436A33B905
:101558004368B3F5827F05D00023C36102E000230E
:10156800036143610023A36294F85130002B40D0FB
:10157800022384F851302268136823F04003136073
:10158800636803F48273A26802F404421343E268B6
:1015980002F400621343226902F0020213436269F3
:1015A80002F001021343A26902F400721343E269D4
:1015B80002F038021343226A02F080021343A26A3F
:1015C80002F40052216813430B60638B03F0040399
:1015D800626A02F01002216813434B602268D369E3
:1015E80023F40063D36100206065012384F851303F
:1015F80010BD84F850302046FFF786F8B8E7012080
:1016080070472DE9F04383B01D4690F85030012B08
:1016180000F0D180044688469146012380F8503076
:10162800FFF73CFA074694F85160F6B2012E40F0F5
:10163800AF80B8F1000F00F0AC80B9F1000F00F0F6
:10164800A880032384F8513000236365C4F83080F0
:10165800A4F83490A4F83690A363A387E38763645F
:101668002364A368B3F5004F1ED023681A6812F0EC
:10167800400F03D11A6842F040021A60E368B3F5DC
:10168800006F1CD0636813B1B9F1010F52D1226BFE
:10169800236812781A73236B01332363E38E9BB29A
:1016A800013B9BB2E38645E02268136823F04003C0
:1016B80013602268136843F480431360D5E76368B6
:1016C80013B1B9F1010F16D1226B23681288DA60C1
:1016D800236B02332363E38E9BB2013B9BB2E38609
:1016E80009E0FFF7DBF9C01BA84202D3B5F1FF3FC1
:1016F80059D1002D59D0E38E9BB2002B33D02368EB
:101708009A6812F0020FECD0226B1288DA60236B11
:1017180002332363E38E9BB2013B9BB2E386EAE785
:10172800FFF7BCF9C01BA84202D3B5F1FF3F3ED179
:10173800002D3ED0E38E9BB2ABB123689A6812F0BD
:10174800020FEDD0226B12781A73236B01332363D7
:10175800B4F836C01FFA8CFC0CF1FF3C1FFA8CFC65
:10176800A4F836C0E6E73A4629462046FFF7B6FE13
:1017780008B120236365A36833B901932368DA6845
:1017880001929B680193019B636D13B9002600E0E9
:101798000226012384F85130002384F85030304663
:1017A80003B0BDE8F0830326F3E70326F1E7032639
:1017B800EFE70326EDE70226F1E7000038B5044617
:1017C8000268136923F44053C1680B4313618368AB
:1017D8000269134342691343C2691A430168CB681B
:1017E80023F4164323F00C031343CB6002685369B8
:1017F80023F4407381690B4353610368314A934270
:1018080006D002F58062934202D0FFF7DDFD01E0C9
:10181800FFF7EAFDE369B3F5004F29D0002103186B
:1018280049411B1841F10001C90041EA5371DB002D
:10183800181863684FEA83024FEA937341F1000175
:10184800FEF7BEFC204DA5FB00325109642303FBC3
:1018580011031B013233A5FB03235B0903F0F002DC
:1018680002EB011203F00F03216813448B6038BDAB
:101878000023021843EB0301121841F10001C900CB
:1018880041EA5271D200101841F1000162689218C1
:101898005B41FEF795FC0C4DA5FB00325109642312
:1018A80003FB1103DB003233A5FB03235B095A005A
:1018B80002F4F87202EB011203F0070321681344E3
:1018C8008B60D4E7001001401F85EB5158B310B569
:1018D800044690F83D300BB3242384F83D30226849
:1018E800D36823F40053D3602046FFF767FF2268CC
:1018F800136923F4904313612268536923F02A0380
:1019080053612268D36843F40053D36000202064F5
:10191800202384F83D3084F83E3010BD80F83C30F8
:10192800FEF776FFD8E7012070470000DFF834D0D3
:101938000D480E490E4A002302E0D458C45004331F
:10194800C4188C42F9D30B4A0B4C002301E01360F6
:101958000432A242FBD3FEF737FF00F011F8FEF77E
:101968006FFE704700000220000000200C000020DD
:10197800201A00080C000020C8000020FEE7000024
:1019880070B50D4D0D4C641BA4100026A64209D15C
:101998000B4D0C4C00F020F8641BA4100026A64246
:1019A80005D170BD55F8043B98470136EEE755F868
:1019B800043B98470136F2E7181A0008181A00087D
:1019C800181A00081C1A000802440346934200D162
:1019D800704703F8011BF9E7F8B500BFF8BC08BC6D
:1019E8009E467047F8B500BFF8BC08BC9E467047D5
:1019F80000000000000000000102030406070809B7
:081A08000000000001020304CC
:081A1000E8E7FF7F0100000080
:041A1800AD01000814
:041A1C008901000834
:0C1A20000024F400010000001000000091
:0400000508001935A1
:00000001FF
